:020000040800F2
:1000000000000220D10000081901000819010008B1
:10001000190100081901000819010008000000007A
:1000200000000000000000000000000019010008AE
:10003000000000000000000019010008190100087C
:1000400082B00190019B5A1E01920BB902B0704719
:1000500000BFF7E707B5194B194A1B681268194921
:100060001344194A0193019BD2F8303843F0080336
:10007000C2F83038D1F8003C23F00303C1F8003C4B
:10008000D1F8003C43F00103C1F8003CD1F8043C36
:1000900023F00103C1F8043CD1F8143C0B4843F0B1
:1000A0000103C1F8143CFFF7CBFFD1F8143C23F057
:1000B0000103C1F8143CFFF7C3FFEDE70000002087
:1000C00004000020000002400030024020A1070090
:1000D000DFF82CD00B480C490C4A884204DA52F85D
:1000E000043B40F8043BF8E709480A494FF0000296
:1000F000884202DA40F8042BFAE7FFF7ABFFFEE78D
:100100000000022000000020040000201C01000864
:0C0110000400002008000020FEE70000B2
:04011C003930000076
:04000005080000D11E
:00000001FF
